:100000000C9434000C943E000C943E000C943E0082
:100010000C943E000C943E000C943E000C943E0068
:100020000C943E000C943E000C943E000C943E0058
:100030000C943E000C943E000C943E000C943E0048
:100040000C943E000C943E000C943E000C943E0038
:100050000C943E000C943E000C943E000C943E0028
:100060000C943E000C943E0011241FBECFEFD4E050
:10007000DEBFCDBF0E9440000C94B9000C9400007C
:1000800085B1866085B90E94A80080917C0080645B
:1000900080937C0080917C00806280937C008091C2
:1000A0007A00846080937A0080917A0080688093DF
:1000B0007A000E947B0080917A00806480937A00AD
:1000C00080917A0086FDFCCF809179001A9905C055
:1000D00088EC90E00E948000F9CF199905C088EC67
:1000E00090E00E949400F9CF85EA9EE00197F1F735
:1000F00000C00000E0CF8AB1806E8AB95D98089593
:100100005E9A20E030E0281739076CF45F9A4EE9D8
:100110004A95F1F700005F984EE94A95F1F7000023
:100120002F5F3F4FF0CF08955E9820E030E0281712
:1001300039076CF45F9A4EE94A95F1F700005F9831
:100140004EE94A95F1F700002F5F3F4FF0CF089539
:100150001092C5008CE08093C400E0ECF0E0808158
:100160008260808388E18093C10086E08093C20032
:060170000895F894FFCF92
:00000001FF
